{
  "_format": "hh3-artifact-1",
  "contractName": "StakingSystem",
  "sourceName": "contracts/StakingSystem.sol",
  "abi": [
    {
      "inputs": [
        {
          "internalType": "address",
          "name": "_usdtToken",
          "type": "address"
        },
        {
          "internalType": "address",
          "name": "_linkToken",
          "type": "address"
        },
        {
          "internalType": "address",
          "name": "_aavePoolProvider",
          "type": "address"
        },
        {
          "internalType": "address",
          "name": "_aaveDataProvider",
          "type": "address"
        },
        {
          "internalType": "address",
          "name": "_initialOwner",
          "type": "address"
        }
      ],
      "stateMutability": "nonpayable",
      "type": "constructor"
    },
    {
      "inputs": [],
      "name": "EnforcedPause",
      "type": "error"
    },
    {
      "inputs": [],
      "name": "ExpectedPause",
      "type": "error"
    },
    {
      "inputs": [
        {
          "internalType": "address",
          "name": "owner",
          "type": "address"
        }
      ],
      "name": "OwnableInvalidOwner",
      "type": "error"
    },
    {
      "inputs": [
        {
          "internalType": "address",
          "name": "account",
          "type": "address"
        }
      ],
      "name": "OwnableUnauthorizedAccount",
      "type": "error"
    },
    {
      "inputs": [],
      "name": "ReentrancyGuardReentrantCall",
      "type": "error"
    },
    {
      "inputs": [
        {
          "internalType": "address",
          "name": "token",
          "type": "address"
        }
      ],
      "name": "SafeERC20FailedOperation",
      "type": "error"
    },
    {
      "anonymous": false,
      "inputs": [
        {
          "indexed": true,
          "internalType": "address",
          "name": "user",
          "type": "address"
        },
        {
          "indexed": false,
          "internalType": "uint256",
          "name": "rewardAmount",
          "type": "uint256"
        }
      ],
      "name": "LinkRewardsClaimed",
      "type": "event"
    },
    {
      "anonymous": false,
      "inputs": [
        {
          "indexed": true,
          "internalType": "address",
          "name": "user",
          "type": "address"
        },
        {
          "indexed": false,
          "internalType": "uint256",
          "name": "linkAmount",
          "type": "uint256"
        },
        {
          "indexed": false,
          "internalType": "uint256",
          "name": "aTokenAmount",
          "type": "uint256"
        }
      ],
      "name": "LinkStaked",
      "type": "event"
    },
    {
      "anonymous": false,
      "inputs": [
        {
          "indexed": true,
          "internalType": "address",
          "name": "user",
          "type": "address"
        },
        {
          "indexed": false,
          "internalType": "uint256",
          "name": "linkAmount",
          "type": "uint256"
        },
        {
          "indexed": false,
          "internalType": "uint256",
          "name": "aTokenBurned",
          "type": "uint256"
        }
      ],
      "name": "LinkWithdrawn",
      "type": "event"
    },
    {
      "anonymous": false,
      "inputs": [
        {
          "indexed": true,
          "internalType": "address",
          "name": "previousOwner",
          "type": "address"
        },
        {
          "indexed": true,
          "internalType": "address",
          "name": "newOwner",
          "type": "address"
        }
      ],
      "name": "OwnershipTransferred",
      "type": "event"
    },
    {
      "anonymous": false,
      "inputs": [
        {
          "indexed": false,
          "internalType": "address",
          "name": "account",
          "type": "address"
        }
      ],
      "name": "Paused",
      "type": "event"
    },
    {
      "anonymous": false,
      "inputs": [
        {
          "indexed": true,
          "internalType": "address",
          "name": "user",
          "type": "address"
        },
        {
          "indexed": false,
          "internalType": "uint256",
          "name": "rewardAmount",
          "type": "uint256"
        }
      ],
      "name": "RewardsClaimed",
      "type": "event"
    },
    {
      "anonymous": false,
      "inputs": [
        {
          "indexed": true,
          "internalType": "address",
          "name": "user",
          "type": "address"
        },
        {
          "indexed": false,
          "internalType": "uint256",
          "name": "usdtAmount",
          "type": "uint256"
        },
        {
          "indexed": false,
          "internalType": "uint256",
          "name": "aTokenAmount",
          "type": "uint256"
        }
      ],
      "name": "Staked",
      "type": "event"
    },
    {
      "anonymous": false,
      "inputs": [
        {
          "indexed": false,
          "internalType": "address",
          "name": "account",
          "type": "address"
        }
      ],
      "name": "Unpaused",
      "type": "event"
    },
    {
      "anonymous": false,
      "inputs": [
        {
          "indexed": true,
          "internalType": "address",
          "name": "user",
          "type": "address"
        },
        {
          "indexed": false,
          "internalType": "uint256",
          "name": "usdtAmount",
          "type": "uint256"
        },
        {
          "indexed": false,
          "internalType": "uint256",
          "name": "aTokenBurned",
          "type": "uint256"
        }
      ],
      "name": "Withdrawn",
      "type": "event"
    },
    {
      "inputs": [],
      "name": "AAVE_DATA_PROVIDER",
      "outputs": [
        {
          "internalType": "address",
          "name": "",
          "type": "address"
        }
      ],
      "stateMutability": "view",
      "type": "function"
    },
    {
      "inputs": [],
      "name": "AAVE_POOL_PROVIDER",
      "outputs": [
        {
          "internalType": "address",
          "name": "",
          "type": "address"
        }
      ],
      "stateMutability": "view",
      "type": "function"
    },
    {
      "inputs": [],
      "name": "LINK_TOKEN",
      "outputs": [
        {
          "internalType": "address",
          "name": "",
          "type": "address"
        }
      ],
      "stateMutability": "view",
      "type": "function"
    },
    {
      "inputs": [],
      "name": "USDT_TOKEN",
      "outputs": [
        {
          "internalType": "address",
          "name": "",
          "type": "address"
        }
      ],
      "stateMutability": "view",
      "type": "function"
    },
    {
      "inputs": [],
      "name": "aLinkToken",
      "outputs": [
        {
          "internalType": "address",
          "name": "",
          "type": "address"
        }
      ],
      "stateMutability": "view",
      "type": "function"
    },
    {
      "inputs": [],
      "name": "aUsdtToken",
      "outputs": [
        {
          "internalType": "address",
          "name": "",
          "type": "address"
        }
      ],
      "stateMutability": "view",
      "type": "function"
    },
    {
      "inputs": [],
      "name": "aavePool",
      "outputs": [
        {
          "internalType": "address",
          "name": "",
          "type": "address"
        }
      ],
      "stateMutability": "view",
      "type": "function"
    },
    {
      "inputs": [],
      "name": "claimLinkRewards",
      "outputs": [],
      "stateMutability": "nonpayable",
      "type": "function"
    },
    {
      "inputs": [],
      "name": "claimRewards",
      "outputs": [],
      "stateMutability": "nonpayable",
      "type": "function"
    },
    {
      "inputs": [
        {
          "internalType": "address",
          "name": "token",
          "type": "address"
        },
        {
          "internalType": "uint256",
          "name": "amount",
          "type": "uint256"
        }
      ],
      "name": "emergencyWithdraw",
      "outputs": [],
      "stateMutability": "nonpayable",
      "type": "function"
    },
    {
      "inputs": [],
      "name": "getLinkSystemStats",
      "outputs": [
        {
          "internalType": "uint256",
          "name": "_totalLinkStaked",
          "type": "uint256"
        },
        {
          "internalType": "uint256",
          "name": "_totalLinkRewardsPaid",
          "type": "uint256"
        },
        {
          "internalType": "uint256",
          "name": "_totalLinkATokens",
          "type": "uint256"
        },
        {
          "internalType": "uint256",
          "name": "_availableLinkRewards",
          "type": "uint256"
        },
        {
          "internalType": "uint256",
          "name": "_currentLinkAPY",
          "type": "uint256"
        }
      ],
      "stateMutability": "view",
      "type": "function"
    },
    {
      "inputs": [],
      "name": "getSystemStats",
      "outputs": [
        {
          "internalType": "uint256",
          "name": "_totalStaked",
          "type": "uint256"
        },
        {
          "internalType": "uint256",
          "name": "_totalRewardsPaid",
          "type": "uint256"
        },
        {
          "internalType": "uint256",
          "name": "_totalATokens",
          "type": "uint256"
        },
        {
          "internalType": "uint256",
          "name": "_availableRewards",
          "type": "uint256"
        },
        {
          "internalType": "uint256",
          "name": "_currentAPY",
          "type": "uint256"
        }
      ],
      "stateMutability": "view",
      "type": "function"
    },
    {
      "inputs": [
        {
          "internalType": "address",
          "name": "user",
          "type": "address"
        }
      ],
      "name": "getUserInfo",
      "outputs": [
        {
          "internalType": "uint256",
          "name": "stakedAmount",
          "type": "uint256"
        },
        {
          "internalType": "uint256",
          "name": "aTokenBalance",
          "type": "uint256"
        },
        {
          "internalType": "uint256",
          "name": "lastStakeTime",
          "type": "uint256"
        },
        {
          "internalType": "uint256",
          "name": "totalRewardsClaimed",
          "type": "uint256"
        },
        {
          "internalType": "uint256",
          "name": "availableRewards",
          "type": "uint256"
        },
        {
          "internalType": "uint256",
          "name": "currentValue",
          "type": "uint256"
        }
      ],
      "stateMutability": "view",
      "type": "function"
    },
    {
      "inputs": [
        {
          "internalType": "address",
          "name": "user",
          "type": "address"
        }
      ],
      "name": "getUserLinkInfo",
      "outputs": [
        {
          "internalType": "uint256",
          "name": "stakedAmount",
          "type": "uint256"
        },
        {
          "internalType": "uint256",
          "name": "aTokenBalance",
          "type": "uint256"
        },
        {
          "internalType": "uint256",
          "name": "lastStakeTime",
          "type": "uint256"
        },
        {
          "internalType": "uint256",
          "name": "totalRewardsClaimed",
          "type": "uint256"
        },
        {
          "internalType": "uint256",
          "name": "availableRewards",
          "type": "uint256"
        },
        {
          "internalType": "uint256",
          "name": "currentValue",
          "type": "uint256"
        }
      ],
      "stateMutability": "view",
      "type": "function"
    },
    {
      "inputs": [],
      "name": "owner",
      "outputs": [
        {
          "internalType": "address",
          "name": "",
          "type": "address"
        }
      ],
      "stateMutability": "view",
      "type": "function"
    },
    {
      "inputs": [],
      "name": "pause",
      "outputs": [],
      "stateMutability": "nonpayable",
      "type": "function"
    },
    {
      "inputs": [],
      "name": "paused",
      "outputs": [
        {
          "internalType": "bool",
          "name": "",
          "type": "bool"
        }
      ],
      "stateMutability": "view",
      "type": "function"
    },
    {
      "inputs": [],
      "name": "renounceOwnership",
      "outputs": [],
      "stateMutability": "nonpayable",
      "type": "function"
    },
    {
      "inputs": [
        {
          "internalType": "uint256",
          "name": "usdtAmount",
          "type": "uint256"
        }
      ],
      "name": "stake",
      "outputs": [],
      "stateMutability": "nonpayable",
      "type": "function"
    },
    {
      "inputs": [
        {
          "internalType": "uint256",
          "name": "linkAmount",
          "type": "uint256"
        }
      ],
      "name": "stakeLINK",
      "outputs": [],
      "stateMutability": "nonpayable",
      "type": "function"
    },
    {
      "inputs": [],
      "name": "totalLinkRewardsPaid",
      "outputs": [
        {
          "internalType": "uint256",
          "name": "",
          "type": "uint256"
        }
      ],
      "stateMutability": "view",
      "type": "function"
    },
    {
      "inputs": [],
      "name": "totalLinkStaked",
      "outputs": [
        {
          "internalType": "uint256",
          "name": "",
          "type": "uint256"
        }
      ],
      "stateMutability": "view",
      "type": "function"
    },
    {
      "inputs": [],
      "name": "totalRewardsPaid",
      "outputs": [
        {
          "internalType": "uint256",
          "name": "",
          "type": "uint256"
        }
      ],
      "stateMutability": "view",
      "type": "function"
    },
    {
      "inputs": [],
      "name": "totalStaked",
      "outputs": [
        {
          "internalType": "uint256",
          "name": "",
          "type": "uint256"
        }
      ],
      "stateMutability": "view",
      "type": "function"
    },
    {
      "inputs": [
        {
          "internalType": "address",
          "name": "newOwner",
          "type": "address"
        }
      ],
      "name": "transferOwnership",
      "outputs": [],
      "stateMutability": "nonpayable",
      "type": "function"
    },
    {
      "inputs": [],
      "name": "unpause",
      "outputs": [],
      "stateMutability": "nonpayable",
      "type": "function"
    },
    {
      "inputs": [
        {
          "internalType": "address",
          "name": "",
          "type": "address"
        }
      ],
      "name": "userInfo",
      "outputs": [
        {
          "internalType": "uint256",
          "name": "stakedAmount",
          "type": "uint256"
        },
        {
          "internalType": "uint256",
          "name": "aTokenBalance",
          "type": "uint256"
        },
        {
          "internalType": "uint256",
          "name": "lastStakeTime",
          "type": "uint256"
        },
        {
          "internalType": "uint256",
          "name": "totalRewardsClaimed",
          "type": "uint256"
        }
      ],
      "stateMutability": "view",
      "type": "function"
    },
    {
      "inputs": [
        {
          "internalType": "address",
          "name": "",
          "type": "address"
        }
      ],
      "name": "userLinkInfo",
      "outputs": [
        {
          "internalType": "uint256",
          "name": "stakedAmount",
          "type": "uint256"
        },
        {
          "internalType": "uint256",
          "name": "aTokenBalance",
          "type": "uint256"
        },
        {
          "internalType": "uint256",
          "name": "lastStakeTime",
          "type": "uint256"
        },
        {
          "internalType": "uint256",
          "name": "totalRewardsClaimed",
          "type": "uint256"
        }
      ],
      "stateMutability": "view",
      "type": "function"
    },
    {
      "inputs": [
        {
          "internalType": "uint256",
          "name": "usdtAmount",
          "type": "uint256"
        }
      ],
      "name": "withdraw",
      "outputs": [],
      "stateMutability": "nonpayable",
      "type": "function"
    },
    {
      "inputs": [
        {
          "internalType": "uint256",
          "name": "linkAmount",
          "type": "uint256"
        }
      ],
      "name": "withdrawLINK",
      "outputs": [],
      "stateMutability": "nonpayable",
      "type": "function"
    }
  ],
  "bytecode": "0x610100806040523461032d5760a081611f4d80380380916100208285610473565b83398101031261032d57610033816104aa565b90610040602082016104aa565b61004c604083016104aa565b90610059606084016104aa565b926001600160a01b039061006f906080016104aa565b16938415610460575f80546001600160a01b031981168717825560405196916001600160a01b03909116907f8be0079c531659141344cd1fd0a4f28419497f9722a3daafe3b4186f6b6457e09080a3600180556001600160a01b03811694851561041e57506001600160a01b0382169384156103d9576001600160a01b038416908115610389576001600160a01b0381169485156103395760049460209460805260a05260c05260e0526040519283809263026b1d5f60e01b82525afa9081156102d1575f916102fb575b5060028054610100600160a81b03191660089290921b610100600160a81b031691909117908190556040516334924edb60e21b815260048101859052909390606081602481865afa9283156102d1576024936060925f916102dc575b50600380546001600160a01b0319166001600160a01b03929092169190911790556040516334924edb60e21b81526004810186905293849182905afa9384156102d15761022794610212935f916102a0575b50600480546001600160a01b0319166001600160a01b0392831617905560089190911c16906104ee565b60025460081c6001600160a01b0316906104ee565b60405161194c908161060182396080518181816102d80152818161079e01528181610f490152818161118701526112f6015260a05181818161022f015281816104850152818161062101528181610a350152610e35015260c05181610c54015260e05181818161030e015281816104bb0152610dab0152f35b6102c2915060603d6060116102ca575b6102ba8183610473565b8101906104be565b50505f6101e8565b503d6102b0565b6040513d5f823e3d90fd5b6102f39150833d85116102ca576102ba8183610473565b50505f610196565b90506020813d602011610331575b8161031660209383610473565b8101031261032d57610327906104aa565b5f61013a565b5f80fd5b3d9150610309565b60405162461bcd60e51b815260206004820152602260248201527f496e76616c6964204141564520646174612070726f7669646572206164647265604482015261737360f01b6064820152608490fd5b60405162461bcd60e51b815260206004820152602260248201527f496e76616c6964204141564520706f6f6c2070726f7669646572206164647265604482015261737360f01b6064820152608490fd5b60405162461bcd60e51b815260206004820152601a60248201527f496e76616c6964204c494e4b20746f6b656e20616464726573730000000000006044820152606490fd5b62461bcd60e51b815260206004820152601a60248201527f496e76616c6964205553445420746f6b656e20616464726573730000000000006044820152606490fd5b631e4fbdf760e01b5f525f60045260245ffd5b601f909101601f19168101906001600160401b0382119082101761049657604052565b634e487b7160e01b5f52604160045260245ffd5b51906001600160a01b038216820361032d57565b9081606091031261032d576104d2816104aa565b916104eb60406104e4602085016104aa565b93016104aa565b90565b6040519060205f8184019463095ea7b360e01b865260018060a01b0316948560248601528119604486015260448552610528606486610473565b84519082855af15f513d82610583575b50501561054457505050565b61057c610581936040519063095ea7b360e01b602083015260248201525f604482015260448152610576606482610473565b826105a8565b6105a8565b565b9091506105a057506001600160a01b0381163b15155b5f80610538565b600114610599565b905f602091828151910182855af1156102d1575f513d6105f757506001600160a01b0381163b155b6105d75750565b635274afe760e01b5f9081526001600160a01b0391909116600452602490fd5b600114156105d056fe6080806040526004361015610012575f80fd5b5f905f3560e01c9081631959a00214611465575080631ead3651146114095780632e1a7d4d14611286578063372500ab1461112c5780633bcc40c2146110ee5780633f4ba83a146110885780635c975abb146110665780636386c1c714610fec578063715018a614610f9557806374958e3514610f7857806377b330c914610f345780637947ac7614610dda5780637e0bce1014610d96578063817b1cd214610d795780638456cb5914610d205780638da5cb5b14610cf957806395ccea6714610c835780639b02021d14610c3f5780639cf61a5e14610a015780639d4773a6146109e3578063a03e4bc3146109b6578063a694fc3a14610769578063b9485f3a14610740578063bb84e74f146105ab578063c99605c61461058d578063cd0770e01461040f578063d1ce59a71461025e578063eedac3a614610219578063f2fde38b146101935763fa7dba9d14610168575f80fd5b346101905780600319360112610190576004546040516001600160a01b039091168152602090f35b80fd5b5034610190576020366003190112610190576101ad6114c6565b6101b5611839565b6001600160a01b031680156102055781546001600160a01b03198116821783556001600160a01b03167f8be0079c531659141344cd1fd0a4f28419497f9722a3daafe3b4186f6b6457e08380a380f35b631e4fbdf760e01b82526004829052602482fd5b50346101905780600319360112610190576040517f00000000000000000000000000000000000000000000000000000000000000006001600160a01b03168152602090f35b50346101905780600319360112610190576003546040516370a0823160e01b815230600482015290602090829060249082906001600160a01b03165afa9081156104045782916103ce575b50600754808211156103c7576102bf81836115ef565b905b6040516335ea6a7560e01b81526001600160a01b037f00000000000000000000000000000000000000000000000000000000000000008116600483015290929061018090849060249082907f0000000000000000000000000000000000000000000000000000000000000000165afa9283156103bc5769152d02c7e14af6800000959361037d575b5060085460408051938452602084019190915282019390935260608101929092529190910460808201528060a081015b0390f35b61037993506103a3906101803d81116103b5575b61039b81836115b9565b8101906116ce565b50505050505094505050505092610349565b503d610391565b6040513d87823e3d90fd5b82906102c1565b90506020813d6020116103fc575b816103e9602093836115b9565b810103126103f857515f6102a9565b5f80fd5b3d91506103dc565b6040513d84823e3d90fd5b50346101905780600319360112610190576024602060018060a01b0360045416604051928380926370a0823160e01b82523060048301525afa90811561040457829161055b575b50600954808211156105545761046c81836115ef565b905b6040516335ea6a7560e01b81526001600160a01b037f00000000000000000000000000000000000000000000000000000000000000008116600483015290929061018090849060249082907f0000000000000000000000000000000000000000000000000000000000000000165afa9283156103bc5769152d02c7e14af68000009593610525575b50600a54604080519384526020840191909152820193909352606081019290925291909104608082015260a090f35b6103799350610542906101803d81116103b55761039b81836115b9565b505050505050945050505050926104f6565b829061046e565b90506020813d602011610585575b81610576602093836115b9565b810103126103f857515f610456565b3d9150610569565b50346101905780600319360112610190576020600954604051908152f35b5034610190576020366003190112610190576004356105c8611733565b6105d38115156114dc565b338252600660205260408220908154916105ef82841015611528565b6106076001820193610602848654611574565b61159b565b600254604051631a4ca37b60e21b81526001600160a01b037f0000000000000000000000000000000000000000000000000000000000000000818116600484015260248301859052306044840152919693959194919392602091889160081c16818a816064810103925af19586156107355787966106f9575b50826106c194928261069789966106ae95546115ef565b90556106a48782546115ef565b90556009546115ef565b60095533906001600160a01b0316611753565b60405191825260208201527f7466c0459cec76a40064a85244fcd0e407eccaeb35dd02b90af04dfb80f534ea60403392a26001805580f35b9092939195506020813d60201161072d575b81610718602093836115b9565b810103126103f85751949092916106ae610680565b3d915061070b565b6040513d89823e3d90fd5b50346101905780600319360112610190576003546040516001600160a01b039091168152602090f35b503461019057602036600319011261019057600435610786611733565b61078e61185f565b6107998115156114dc565b6024827f00000000000000000000000000000000000000000000000000000000000000006107d28430336001600160a01b03851661187a565b6003546040516370a0823160e01b81523060048201529360209185919082906001600160a01b03165afa92831561040457829361097f575b5060025460081c6001600160a01b0316803b1561097b5760405163617ba03760e01b81526001600160a01b03929092166004830152602482018590523060448301525f606483015282908290608490829084905af1801561040457610966575b50506003546040516370a0823160e01b81523060048201529190602090839060249082906001600160a01b03165afa801561095b578490610927575b6108b092506115ef565b3383526005602052604083206108c783825461167e565b8155600181016108d883825461167e565b90556002429101556108ec8260075461167e565b60075560405191825260208201527f1449c6dd7851abc30abf37f57715f492010519147cc2652fbc38202c18a6ee9060403392a26001805580f35b506020823d602011610953575b81610941602093836115b9565b810103126103f8576108b091516108a6565b3d9150610934565b6040513d86823e3d90fd5b81610970916115b9565b61097b57825f61086a565b8280fd5b915091506020813d6020116109ae575b8161099c602093836115b9565b810103126103f857839051915f61080a565b3d915061098f565b503461019057806003193601126101905760025460405160089190911c6001600160a01b03168152602090f35b50346101905780600319360112610190576020600a54604051908152f35b50346103f85760203660031901126103f857600435610a1e611733565b610a2661185f565b610a318115156114dc565b60247f0000000000000000000000000000000000000000000000000000000000000000610a698330336001600160a01b03851661187a565b602060018060a01b0360045416604051938480926370a0823160e01b82523060048301525afa918215610c00575f92610c0b575b5060025460081c6001600160a01b0316803b156103f85760405163617ba03760e01b81526001600160a01b03929092166004830152602482018490523060448301525f60648301819052908290608490829084905af18015610c0057610bea575b50602490602060018060a01b0360045416604051938480926370a0823160e01b82523060048301525afa801561095b578490610bb6575b610b3f92506115ef565b338352600660205260408320610b5683825461167e565b815560018101610b6783825461167e565b9055600242910155610b7b8260095461167e565b60095560405191825260208201527ffc744763b1c5337ce25f62474f38792915e1af33960109f22b51007ad62a583f60403392a26001805580f35b506020823d602011610be2575b81610bd0602093836115b9565b810103126103f857610b3f9151610b35565b3d9150610bc3565b610bf79193505f906115b9565b5f916024610afe565b6040513d5f823e3d90fd5b9091506020813d602011610c37575b81610c27602093836115b9565b810103126103f85751905f610a9d565b3d9150610c1a565b346103f8575f3660031901126103f8576040517f00000000000000000000000000000000000000000000000000000000000000006001600160a01b03168152602090f35b346103f85760403660031901126103f857610c9c6114c6565b60243590610ca8611839565b6001600160a01b031680610cdf57505f8080809360018060a01b03825416828215610cd6575bf115610c0057005b506108fc610cce565b5f54610cf792916001600160a01b0390911690611753565b005b346103f8575f3660031901126103f8575f546040516001600160a01b039091168152602090f35b346103f8575f3660031901126103f857610d38611839565b610d4061185f565b600160ff1960025416176002557f62e78cea01bee320cd4e420270b5ea74000d11b0c9f74754ebdbfc544b05a2586020604051338152a1005b346103f8575f3660031901126103f8576020600754604051908152f35b346103f8575f3660031901126103f8576040517f00000000000000000000000000000000000000000000000000000000000000006001600160a01b03168152602090f35b346103f8575f3660031901126103f857610df2611733565b335f5260066020525f60408120610e0e600182015415156115fc565b610e1733611800565b90610e2382151561163b565b600254604051631a4ca37b60e21b81527f00000000000000000000000000000000000000000000000000000000000000006001600160a01b0381811660048401526024830195909552306044830152909490936020928692606492849260081c165af1928315610c00575f93610efc575b50610eca916003849201610ea983825461167e565b9055610eb782600a5461167e565b600a5533906001600160a01b0316611753565b6040519081527f402034d414bd3bf4c33899c192b3d57c504f1b8f349484cdd9d64cb53bd7a83160203392a260018055005b9192506020823d602011610f2c575b81610f18602093836115b9565b810103126103f85790519190610eca610e94565b3d9150610f0b565b346103f8575f3660031901126103f8576040517f00000000000000000000000000000000000000000000000000000000000000006001600160a01b03168152602090f35b346103f8575f3660031901126103f8576020600854604051908152f35b346103f8575f3660031901126103f857610fad611839565b5f80546001600160a01b0319811682556001600160a01b03167f8be0079c531659141344cd1fd0a4f28419497f9722a3daafe3b4186f6b6457e08280a3005b346103f85760203660031901126103f8576110056114c6565b60018060a01b0381165f52600560205261102a61102460405f2061168b565b91611795565b602082810151835160408086015160609687015182519384529483018490529082015293840191909152608083019190915260a082015260c090f35b346103f8575f3660031901126103f857602060ff600254166040519015158152f35b346103f8575f3660031901126103f8576110a0611839565b60025460ff8116156110df5760ff19166002557f5db9ee0a495bf2e6ff9c91a7834c1ba4fdd244a5e8aa4e537bd38aeae4b073aa6020604051338152a1005b638dfc202b60e01b5f5260045ffd5b346103f85760203660031901126103f8576111076114c6565b60018060a01b0381165f52600660205261102a61112660405f2061168b565b91611800565b346103f8575f3660031901126103f857611144611733565b335f5260056020525f60408120611160600182015415156115fc565b61116933611795565b9061117582151561163b565b600254604051631a4ca37b60e21b81527f00000000000000000000000000000000000000000000000000000000000000006001600160a01b0381811660048401526024830195909552306044830152909490936020928692606492849260081c165af1928315610c00575f9361124e575b5061121c9160038492016111fb83825461167e565b90556112098260085461167e565b60085533906001600160a01b0316611753565b6040519081527ffc30cddea38e2bf4d6ea7d3f9ed3b6ad7f176419f4963bd81318067a4aee73fe60203392a260018055005b9192506020823d60201161127e575b8161126a602093836115b9565b810103126103f8579051919061121c6111e6565b3d915061125d565b346103f85760203660031901126103f8576004356112a2611733565b6112ad8115156114dc565b335f52600560205260405f20908154916112c982841015611528565b6112dc6001820193610602848654611574565b600254604051631a4ca37b60e21b81526001600160a01b037f0000000000000000000000000000000000000000000000000000000000000000818116600484015260248301859052306044840152919693959194919392602091889160081c16815f816064810103925af1958615610c00575f966113cd575b508261139694928261136c899661138395546115ef565b90556113798782546115ef565b90556007546115ef565b60075533906001600160a01b0316611753565b60405191825260208201527f92ccf450a286a957af52509bc1c9939d1a6a481783e142e41e2499f0bb66ebc660403392a260018055005b9092939195506020813d602011611401575b816113ec602093836115b9565b810103126103f8575194909291611383611355565b3d91506113df565b346103f85760203660031901126103f8576001600160a01b0361142a6114c6565b165f90815260066020908152604091829020805460018201546002830154600390930154855192835293820152928301526060820152608090f35b346103f85760203660031901126103f8576001600160a01b036114866114c6565b165f5260056020528061037960405f2080549060018101546003600283015492015492859094939260609260808301968352602083015260408201520152565b600435906001600160a01b03821682036103f857565b156114e357565b60405162461bcd60e51b815260206004820152601d60248201527f416d6f756e74206d7573742062652067726561746572207468616e20300000006044820152606490fd5b1561152f57565b60405162461bcd60e51b815260206004820152601a60248201527f496e73756666696369656e74207374616b656420616d6f756e740000000000006044820152606490fd5b8181029291811591840414171561158757565b634e487b7160e01b5f52601160045260245ffd5b81156115a5570490565b634e487b7160e01b5f52601260045260245ffd5b90601f8019910116810190811067ffffffffffffffff8211176115db57604052565b634e487b7160e01b5f52604160045260245ffd5b9190820391821161158757565b1561160357565b60405162461bcd60e51b815260206004820152601060248201526f139bc81cdd185ad95908185b5bdd5b9d60821b6044820152606490fd5b1561164257565b60405162461bcd60e51b81526020600482015260146024820152734e6f207265776172647320617661696c61626c6560601b6044820152606490fd5b9190820180921161158757565b906040516080810181811067ffffffffffffffff8211176115db576040526060600382948054845260018101546020850152600281015460408501520154910152565b9190826101809103126103f85781519160208101519160408201519160608101519160808201519160a08101519160c08201519160e081015191610100820151916101208101519161016061014083015192015164ffffffffff811681036103f85790565b600260015414611744576002600155565b633ee5aeb560e01b5f5260045ffd5b60405163a9059cbb60e01b60208201526001600160a01b0390921660248301526044808301939093529181526117939161178e6064836115b9565b6118be565b565b6001600160a01b03165f9081526005602052604090206001810154801580156117f7575b6117f15760038254920154906117cf828461167e565b81116117dc575050505f90565b6117ee926117e9916115ef565b6115ef565b90565b50505f90565b508154156117b9565b6001600160a01b03165f9081526006602052604090206001810154801580156117f7576117f15760038254920154906117cf828461167e565b5f546001600160a01b0316330361184c57565b63118cdaa760e01b5f523360045260245ffd5b60ff6002541661186b57565b63d93c066560e01b5f5260045ffd5b6040516323b872dd60e01b60208201526001600160a01b0392831660248201529290911660448301526064808301939093529181526117939161178e6084836115b9565b905f602091828151910182855af115610c00575f513d61190d57506001600160a01b0381163b155b6118ed5750565b635274afe760e01b5f9081526001600160a01b0391909116600452602490fd5b600114156118e656fea2646970667358221220a55ee25acd06cbac05fe9d8ee940f80373c1d81511c0a0cef846c2f60c93ca9b64736f6c634300081c0033",
  "linkReferences": {},
  "deployedLinkReferences": {},
  "immutableReferences": {
    "2971": [
      {
        "length": 32,
        "start": 728
      },
      {
        "length": 32,
        "start": 1950
      },
      {
        "length": 32,
        "start": 3913
      },
      {
        "length": 32,
        "start": 4487
      },
      {
        "length": 32,
        "start": 4854
      }
    ],
    "2973": [
      {
        "length": 32,
        "start": 559
      },
      {
        "length": 32,
        "start": 1157
      },
      {
        "length": 32,
        "start": 1569
      },
      {
        "length": 32,
        "start": 2613
      },
      {
        "length": 32,
        "start": 3637
      }
    ],
    "2975": [
      {
        "length": 32,
        "start": 3156
      }
    ],
    "2977": [
      {
        "length": 32,
        "start": 782
      },
      {
        "length": 32,
        "start": 1211
      },
      {
        "length": 32,
        "start": 3499
      }
    ]
  },
  "inputSourceName": "project/contracts/StakingSystem.sol",
  "buildInfoId": "solc-0_8_28-e34a4d850a45d5ce396fa677be014c86b45e4ce6"
}